{
  "contractName": "Counter2",
  "abi": [
    {
      "anonymous": false,
      "inputs": [
        {
          "indexed": false,
          "internalType": "uint256",
          "name": "count",
          "type": "uint256"
        }
      ],
      "name": "Data",
      "type": "event"
    },
    {
      "inputs": [],
      "name": "count",
      "outputs": [
        {
          "internalType": "uint256",
          "name": "",
          "type": "uint256"
        }
      ],
      "stateMutability": "view",
      "type": "function"
    },
    {
      "inputs": [],
      "name": "get",
      "outputs": [
        {
          "internalType": "uint256",
          "name": "",
          "type": "uint256"
        }
      ],
      "stateMutability": "view",
      "type": "function"
    },
    {
      "inputs": [],
      "name": "inc",
      "outputs": [],
      "stateMutability": "nonpayable",
      "type": "function"
    },
    {
      "inputs": [],
      "name": "dec",
      "outputs": [],
      "stateMutability": "nonpayable",
      "type": "function"
    }
  ],
  "bytecode": "0x608060405234801561001057600080fd5b5061027b806100206000396000f3fe608060405234801561001057600080fd5b506004361061004c5760003560e01c806306661abd14610051578063371303c01461006f5780636d4ce63c14610079578063b3bcfa8214610097575b600080fd5b6100596100a1565b6040516100669190610171565b60405180910390f35b6100776100a7565b005b6100816100fb565b60405161008e9190610171565b60405180910390f35b61009f610104565b005b60005481565b60016000808282546100b991906101bb565b925050819055507fa73e124e44b73e03309d5d4c7f51ef90fb74da03ae88b08e83ddd91d893bf0916000546040516100f19190610171565b60405180910390a1565b60008054905090565b60016000808282546101169190610211565b925050819055507fa73e124e44b73e03309d5d4c7f51ef90fb74da03ae88b08e83ddd91d893bf09160005460405161014e9190610171565b60405180910390a1565b6000819050919050565b61016b81610158565b82525050565b60006020820190506101866000830184610162565b92915050565b7f4e487b7100000000000000000000000000000000000000000000000000000000600052601160045260246000fd5b60006101c682610158565b91506101d183610158565b9250827fffffffffffffffffffffffffffffffffffffffffffffffffffffffffffffffff038211156102065761020561018c565b5b828201905092915050565b600061021c82610158565b915061022783610158565b92508282101561023a5761023961018c565b5b82820390509291505056fea2646970667358221220d7d159fa530a37c5d8ee565c08c61ecbdaa4887401b8e6f421a5235cf20ddfac64736f6c634300080b0033",
  "immutableReferences": {},
  "source": "// SPDX-License-Identifier: MIT\r\npragma solidity ^0.8.11;\r\n\r\ncontract Counter2 {\r\n    uint public count;\r\n\r\n    event Data(uint count);\r\n\r\n    // Function to get the current count\r\n    function get() external view returns (uint) {\r\n        return count;\r\n    }\r\n\r\n    // Function to increment count by 1\r\n    function inc() external {\r\n        count += 1;\r\n        emit Data(count);\r\n    }\r\n\r\n    // Function to decrement count by 1\r\n    function dec() external {\r\n        // This function will fail if count = 0\r\n        count -= 1;\r\n        emit Data(count);\r\n    }\r\n}\r\n",
  "sourcePath": "D:\\PENS\\TA\\nyoba\\smcont\\contracts\\CounterNew.sol",
  "compiler": {
    "name": "solc",
    "version": "0.8.11+commit.d7f03943.Emscripten.clang"
  },
  "schemaVersion": "3.4.7",
  "updatedAt": "2022-09-08T09:58:33.448Z",
  "devdoc": {
    "kind": "dev",
    "methods": {},
    "version": 1
  },
  "userdoc": {
    "kind": "user",
    "methods": {},
    "version": 1
  }
}