{
  "contractName": "Counter4",
  "abi": [
    {
      "inputs": [],
      "name": "get",
      "outputs": [
        {
          "internalType": "uint256",
          "name": "",
          "type": "uint256"
        }
      ],
      "stateMutability": "view",
      "type": "function"
    },
    {
      "inputs": [],
      "name": "inc",
      "outputs": [],
      "stateMutability": "nonpayable",
      "type": "function"
    },
    {
      "inputs": [],
      "name": "dec",
      "outputs": [],
      "stateMutability": "nonpayable",
      "type": "function"
    }
  ],
  "bytecode": "0x608060405234801561001057600080fd5b506101da806100206000396000f3fe608060405234801561001057600080fd5b50600436106100415760003560e01c8063371303c0146100465780636d4ce63c14610050578063b3bcfa821461006e575b600080fd5b61004e610078565b005b610058610093565b60405161006591906100d0565b60405180910390f35b61007661009c565b005b600160008082825461008a919061011a565b92505081905550565b60008054905090565b60016000808282546100ae9190610170565b92505081905550565b6000819050919050565b6100ca816100b7565b82525050565b60006020820190506100e560008301846100c1565b92915050565b7f4e487b7100000000000000000000000000000000000000000000000000000000600052601160045260246000fd5b6000610125826100b7565b9150610130836100b7565b9250827fffffffffffffffffffffffffffffffffffffffffffffffffffffffffffffffff03821115610165576101646100eb565b5b828201905092915050565b600061017b826100b7565b9150610186836100b7565b925082821015610199576101986100eb565b5b82820390509291505056fea2646970667358221220cb87eb9978c59d9f19b276c5da0e88fa70ce8d4c24106ad2068fd56b38cb2ae264736f6c634300080b0033",
  "immutableReferences": {},
  "source": "// SPDX-License-Identifier: MIT\r\npragma solidity ^0.8.11;\r\n\r\ncontract Counter4 {\r\n    uint count;\r\n\r\n    // Function to get the current count\r\n    function get() external view returns (uint) {\r\n        return count;\r\n    }\r\n\r\n    // Function to increment count by 1\r\n    function inc() external {\r\n        count += 1;\r\n    }\r\n\r\n    // Function to decrement count by 1\r\n    function dec() external {\r\n        // This function will fail if count = 0\r\n        count -= 1;\r\n    }\r\n}\r\n",
  "sourcePath": "D:\\PENS\\TA\\nyoba\\smcont\\contracts\\Counter3.sol",
  "compiler": {
    "name": "solc",
    "version": "0.8.11+commit.d7f03943.Emscripten.clang"
  },
  "schemaVersion": "3.4.7",
  "updatedAt": "2022-09-08T09:58:33.187Z",
  "devdoc": {
    "kind": "dev",
    "methods": {},
    "version": 1
  },
  "userdoc": {
    "kind": "user",
    "methods": {},
    "version": 1
  }
}