{
  "contractName": "SimpleStorage",
  "abi": [
    {
      "inputs": [
        {
          "internalType": "uint256",
          "name": "x",
          "type": "uint256"
        }
      ],
      "name": "set",
      "outputs": [],
      "stateMutability": "nonpayable",
      "type": "function"
    },
    {
      "inputs": [],
      "name": "setNum",
      "outputs": [],
      "stateMutability": "nonpayable",
      "type": "function"
    },
    {
      "inputs": [],
      "name": "setNump",
      "outputs": [],
      "stateMutability": "nonpayable",
      "type": "function"
    },
    {
      "inputs": [],
      "name": "get",
      "outputs": [
        {
          "internalType": "uint256",
          "name": "",
          "type": "uint256"
        }
      ],
      "stateMutability": "view",
      "type": "function"
    },
    {
      "inputs": [],
      "name": "getPub",
      "outputs": [
        {
          "internalType": "uint256",
          "name": "",
          "type": "uint256"
        }
      ],
      "stateMutability": "view",
      "type": "function"
    }
  ],
  "bytecode": "0x608060405234801561001057600080fd5b506101c0806100206000396000f3fe608060405234801561001057600080fd5b50600436106100575760003560e01c8063234737511461005c57806360fe47b11461007a5780636d4ce63c146100965780639ee9daa1146100b4578063ac3afa43146100be575b600080fd5b6100646100c8565b6040516100719190610111565b60405180910390f35b610094600480360381019061008f919061015d565b6100d1565b005b61009e6100db565b6040516100ab9190610111565b60405180910390f35b6100bc6100e4565b005b6100c66100ee565b005b60008054905090565b8060008190555050565b60008054905090565b6006600081905550565b6006600081905550565b6000819050919050565b61010b816100f8565b82525050565b60006020820190506101266000830184610102565b92915050565b600080fd5b61013a816100f8565b811461014557600080fd5b50565b60008135905061015781610131565b92915050565b6000602082840312156101735761017261012c565b5b600061018184828501610148565b9150509291505056fea2646970667358221220926ee3cad3705a6104556a10a3a8dd410d51e129b9a54952dec224936e16c3f264736f6c634300080b0033",
  "immutableReferences": {},
  "source": "// SPDX-License-Identifier: MIT\r\npragma solidity ^0.8.11;\r\n\r\ncontract SimpleStorage {\r\n    uint storedData;\r\n\r\n    function set(uint x) external {\r\n        storedData = x;\r\n    }\r\n\r\n    function setNum() external {\r\n        storedData = 6;\r\n    }\r\n\r\n    function setNump() public {\r\n        storedData = 6;\r\n    }\r\n\r\n    function get() external view returns (uint) {\r\n        return storedData;\r\n    }\r\n\r\n    function getPub() public view returns (uint) {\r\n        return storedData;\r\n    }\r\n}",
  "sourcePath": "D:\\PENS\\TA\\nyoba\\smcont\\contracts\\SimpleStorage.sol",
  "compiler": {
    "name": "solc",
    "version": "0.8.11+commit.d7f03943.Emscripten.clang"
  },
  "schemaVersion": "3.4.7",
  "updatedAt": "2022-08-29T08:00:17.051Z",
  "networkType": "ethereum",
  "devdoc": {
    "kind": "dev",
    "methods": {},
    "version": 1
  },
  "userdoc": {
    "kind": "user",
    "methods": {},
    "version": 1
  }
}